:100000000C942A000C9447000C9447000C94470071
:100010000C9447000C9447000C9447000C94470044
:100020000C9447000C9447000C9447000C94470034
:100030000C9447000C9447000C9447000C94470024
:100040000C9447000C9447000C9447000C94470014
:100050000C94470011241FBECFE5D8E0DEBFCDBF12
:1000600010E0A0E6B0E0EEEEF3E002C005900D92E5
:10007000A838B107D9F720E0A8E8B0E001C01D9288
:10008000AA38B207E1F70E94CA010C94F5010C945A
:10009000000081B3806F81BB81B3807F81BB8FEF14
:1000A00082BB08950F931F93CF93DF9340E050E0FE
:1000B0009DC032B3E0E6F0E081E090E08C0100808A
:1000C00002C0000F111F0A94E2F7EC01028002C087
:1000D000CC0FDD1F0A94E2F7DC01048002C0AA0FF6
:1000E000BB1F0A94E2F7BC01068002C0660F771FAF
:1000F0000A94E2F72C2F202B2A2B262B232B22BB12
:1001000022B3FA01EE0FFF1FE05AFF4F008002C03A
:10011000880F991F0A94E2F78095822382BB60E0E2
:1001200070E05EC080B3FB01EE0FFF1FE859FF4F88
:10013000208190E0022E02C0959587950A94E2F7FF
:1001400080FD4CC080B390E0022E02C0959587954B
:100150000A94E2F780FFF6CF41305105C9F024F44C
:100160004115510541F03AC042305105F1F043309C
:10017000510541F133C061157105F1F1613071052F
:10018000E9F162307105E1F16330710539F53AC08A
:1001900061157105C9F161307105C1F162307105F8
:1001A000B9F163307105D1F435C061157105A1F164
:1001B0006130710599F16230710591F1633071051B
:1001C00069F430C06115710579F16130710571F123
:1001D0006230710569F16330710561F16F5F7F4FC6
:1001E000643071050CF49ECF4F5F5F4F4430510572
:1001F0000CF45FCF8EE41FC087E31DC084E31BC0F7
:1002000081E319C081E217C088E315C085E313C0FC
:1002100082E311C080E30FC089E30DC086E30BC009
:1002200083E309C08DE307C08FE205C08AE203C003
:100230008DE201C08BE2DF91CF911F910F91089564
:1002400088B3886088BB8BE49DE10197F1F700C01B
:10025000000088B3877F88BB08958AB31ABA88B331
:10026000846088BB88B38D7F88BB0E9420018AB3DD
:100270008FEF8ABB88B38B7F88BB0895CF93C82F3D
:100280000E942D01CBBB88B3897F88BB0E942001CF
:10029000CF910895109289001092880081E00E9409
:1002A0003E01089583ED90E30197F1F700C000004F
:1002B00087B38E6087BB88B3817F88BB8FEF8ABB93
:1002C00088E30E943E010E944A0186E00E943E01AE
:1002D00080E80E943E018FE00E943E010895811156
:1002E0000DC0862F90E09093890080938800603144
:1002F000A0F480E8860F0E943E010895813069F4E1
:10030000862F90E04096909389008093880060311A
:1003100020F480EC860F0E943E01089580918800B1
:100320009091890001969093890080938800803194
:10033000910529F460E081E00E946F0108958097A3
:1003400051F40E944A0160E080E00E946F01109227
:100350008900109288000895CF93C82F0E942D0124
:10036000CBBB88B38B7F88BB88B3826088BB0E947D
:1003700020010E948E01CF910895CF93DF93EC016D
:1003800003C021960E94AC0188818111FACFDF91D0
:10039000CF9108950E9449000E94520161E080E0DF
:1003A0000E946F0180E790E00E94BD0163E081E060
:1003B0000E946F018EE790E00E94BD012FE78AE165
:1003C00096E0215080409040E1F700C000000E947C
:1003D0004A010E945200813229F08E34D1F30E94EA
:0E03E000AC01F7CF0E944A01F4CFF894FFCF92
:1003EE0004000500060007000000010002000300E3
:1003FE00494E4954494C495A4154494F4E00434F76
:08040E004D504C45544500001F
:00000001FF
