:100000000C942A000C9434000C9434000C943400AA
:100010000C9434000C9434000C9434000C94340090
:100020000C9434000C9434000C9434000C94340080
:100030000C9434000C9434000C9434000C94340070
:100040000C9434000C9434000C9434000C94340060
:100050000C94340011241FBECFE5D8E0DEBFCDBF25
:100060000E9436000C9491000C94000081B38E7FA6
:1000700081BB81B38D7F81BB81B38B7F81BB81B31A
:10008000806181BB81B3806281BB81B3806481BBAD
:1000900081B3806881BB809B15C082B3806182BBC5
:1000A00082B3806282BB2FEF84E39CE021508040CA
:1000B0009040E1F700C0000082B38F7E82BB82B324
:1000C0008F7D82BB819B15C082B3806182BB82B36E
:1000D000806482BB2FEF84E39CE0215080409040FD
:1000E000E1F700C0000082B38F7E82BB82B38F7BBA
:1000F00082BB829BD0CF82B3806182BB82B3806897
:1001000082BB2FEF84E39CE0215080409040E1F7D8
:1001100000C0000082B38F7E82BB82B38F7782BB28
:06012000BACFF894FFCFF6
:00000001FF
