S00C00004C6162322E73726563D7
S11300000C942A000C9434000C9434000C943400A6
S11300100C9434000C9434000C9434000C9434008C
S11300200C9434000C9434000C9434000C9434007C
S11300300C9434000C9434000C9434000C9434006C
S11300400C9434000C9434000C9434000C9434005C
S11300500C94340011241FBECFE5D8E0DEBFCDBF21
S11300600E9436000C9458000C9400008FEF8ABB59
S113007084B38E7F84BB80E090E0989BFECF883071
S11300809105DCF74BB321E030E0082E02C0220FCB
S1130090331F0A94E2F7242B2BBB2FEF34E34CE0FD
S11300A0215030404040E1F700C000000196E5CF08
S10700B0F894FFCFEE
S9030000FC
