S00C00004C6162312E73726563D8
S11300000C942A000C9434000C9434000C943400A6
S11300100C9434000C9434000C9434000C9434008C
S11300200C9434000C9434000C9434000C9434007C
S11300300C9434000C9434000C9434000C9434006C
S11300400C9434000C9434000C9434000C9434005C
S11300500C94340011241FBECFE5D8E0DEBFCDBF21
S11300600E9436000C9479000C94000081B38062E5
S113007081BB81B3806481BB81B3806881BB25E08F
S113008030E016C042B381E090E0022E02C0880F37
S1130090991F0A94E2F7842B82BB4FEF84E39CE020
S11300A0415080409040E1F700C000002F5F3F4F77
S11300B0283031053CF327E030E017C042B381E03B
S11300C090E0022E02C0880F991F0A94E2F78095EF
S11300D0842382BB4FEF84E39CE0415080409040F6
S11300E0E1F700C00000215031092530310534F713
S10900F0C6CFF894FFCF17
S9030000FC
