:100000000C942A000C9447000C9447000C94470071
:100010000C9447000C9447000C9447000C94470044
:100020000C9447000C9447000C9447000C94470034
:100030000C9447000C9447000C9447000C94470024
:100040000C9447000C9447000C9447000C94470014
:100050000C94470011241FBECFE5D8E0DEBFCDBF12
:1000600010E0A0E6B0E0E8E5F2E002C005900D92F5
:10007000A037B107D9F720E0A0E7B0E001C01D929A
:10008000A237B207E1F70E9423010C942A010C94D5
:10009000000088B3886088BB8BE49DE10197F1F78D
:1000A00000C0000088B3877F88BB08958AB38F772C
:1000B0008ABB88B3846088BB88B38D7F88BB0E946D
:1000C00049000E9449008AB380688ABB88B38B7F4D
:1000D00088BB0895CF93C82F0E9456008BB38F70B2
:1000E0009C2F907F892B8BBB88B3897F88BB0E9414
:1000F00049002BB330E1C39FC0011124922F9F70A0
:10010000892B8BBB88B3897F88BB0E944900CF9124
:100110000895109271001092700081E00E946A00B0
:10012000089583ED90E30197F1F700C0000087B3D5
:100130008E6087BB88B3817F88BB8AB3806F8ABBA0
:1001400082E00E946A0088E20E946A000E948900A0
:1001500086E00E946A0080E80E946A008FE00E94A8
:100160006A00089581110DC0862F90E09093710070
:10017000809370006031A0F480E8860F0E946A00CE
:100180000895813069F4862F90E040969093710035
:1001900080937000603120F480EC860F0E946A002A
:1001A0000895809170009091710001969093710074
:1001B000809370008031910529F460E081E00E9415
:1001C000B2000895809751F40E94890060E080E0B9
:1001D0000E94B20010927100109270000895CF93A7
:1001E000C82F0E9456008BB38F709C2F907F892B55
:1001F0008BBB88B38B7F88BB88B3826088BB0E942F
:1002000049002BB330E1C39FC0011124922F9F708E
:10021000892B8BBB88B38B7F88BB88B3826088BBFC
:100220000E9449000E94D100CF910895CF93DF939F
:10023000EC0103C021960E94EF0088818111FACF62
:10024000DF91CF9108950E94910080E690E00E9496
:080250001601FFCFF894FFCF67
:100258004C6561726E20696E204465707468000098
:00000001FF
