:100000000C942A000C9453000C946F000C948B00F9
:100010000C9434000C9434000C9434000C94340090
:100020000C9434000C9434000C9434000C94340080
:100030000C9434000C9434000C9434000C94340070
:100040000C9434000C9434000C9434000C94340060
:100050000C94340011241FBECFE5D8E0DEBFCDBF25
:100060000E9441000C94A7000C94000081B3806EA4
:1000700081BB089581B3837F81BB87B38B7F87BBAF
:1000800008950E9436000E943A0085B78D6085BFB2
:1000900084B78F7B84BF8BB7806E8BBF789482B31D
:1000A000807E82BBFCCF1F920F920FB60F9211245D
:1000B0002F938F939F9382B3806282BB2FEF89E649
:1000C00098E1215080409040E1F700C000009F91EE
:1000D0008F912F910F900FBE0F901F9018951F9228
:1000E0000F920FB60F9211242F938F939F9382B389
:1000F000806482BB2FEF89E698E1215080409040D8
:10010000E1F700C000009F918F912F910F900FBEDB
:100110000F901F9018951F920F920FB60F921124F7
:100120002F938F939F9382B3806882BB2FEF89E6D2
:1001300098E1215080409040E1F700C000009F917D
:100140008F912F910F900FBE0F901F901895F894DC
:02015000FFCFDF
:00000001FF
