:100000000C942A000C9434000C9434000C943400AA
:100010000C9434000C9434000C9434000C94340090
:100020000C9434000C9434000C9434000C94340080
:100030000C9434000C9434000C9434000C94340070
:100040000C9434000C9434000C9434000C94340060
:100050000C94340011241FBECFE5D8E0DEBFCDBF25
:100060000E9436000C946C000C9400008FEF84BB4F
:1000700040E050E02DC09A0122953295307F322722
:10008000207F32272B6025BB2FEF32E567E0215020
:1000900030406040E1F700C000009C01229532959D
:1000A000307F3227207F3227276025BB2FEF32E5B4
:1000B00067E0215030406040E1F700C00000019649
:1000C00002C080E090E08A309105ACF24F5F5F4F54
:0C00D0004A305105B4F3CCCFF894FFCFB8
:00000001FF
